:100000000C9446000C9465000C9465000C946500FB
:100010000C9465000C9465000C9465000C946500CC
:100020000C9465000C9465000C9465000C946500BC
:100030000C9465000C94CA020C9465000C94650045
:100040000C9465000C9465000C9465000C9465009C
:100050000C9465000C9465000C9465000C9465008C
:100060000C9465000C9465000C9465000C9465007C
:100070000C9465000C9465000C9465000C9465006C
:100080000C9465000C9465000C94650011241FBE4F
:10009000CFEFD0E4DEBFCDBF11E0A0E0B1E0E6EAF3
:1000A000F9E000E00BBF02C007900D92A831B10744
:1000B000D9F721E0A8E1B1E001C01D92A933B20750
:1000C000E1F70E94FA030C94D1040C940000CF9342
:1000D000DF9300D01F92CDB7DEB789837B836A831D
:1000E00089818A3031F48A819B81BC018DE00E9434
:1000F000670080EC90E0FC018081882F90E08072A6
:100100009927892BB1F386EC90E02981FC012083AB
:1001100080E090E00F900F900F90DF91CF910895C5
:10012000CF93DF931F92CDB7DEB78983898181306A
:10013000E1F081EC90E021EC30E0F90120812861D0
:10014000FC01208382EC90E022EC30E0F901208178
:100150002660FC01208384EC90E023E3FC012083F3
:1001600085EC90E0FC0110821BC089EC90E029EC4A
:1001700030E0F90120812861FC0120838AEC90E0C5
:100180002AEC30E0F90120812660FC0120838CEC10
:1001900090E023E3FC0120838DEC90E0FC011082D1
:1001A00000000F90DF91CF910895CF93DF931F92BE
:1001B000CDB7DEB789838981813031F080EC90E062
:1001C000FC018081807205C088EC90E0FC01808198
:1001D00080720F90DF91CF910895CF93DF931F929C
:1001E000CDB7DEB789838981813031F080EC90E032
:1001F000FC018081807405C088EC90E0FC01808166
:1002000080740F90DF91CF910895CF93DF931F9269
:10021000CDB7DEB789838981813031F080EC90E001
:10022000FC018081807805C088EC90E0FC01808131
:1002300080780F90DF91CF910895CF93DF931F9235
:10024000CDB7DEB7898389818130A1F006C086EC05
:1002500090E0FC01808180931D0180EC90E0FC0126
:1002600080818823A4F30CC08EEC90E0FC01808197
:1002700080931D0188EC90E0FC0180818823A4F329
:1002800000000F90DF91CF910895CF93DF9300D0BE
:10029000CDB7DEB789836A838A81813089F0000017
:1002A00080EC90E0FC018081882F90E0807299279B
:1002B000892BB1F386EC90E02981FC01208310C0EA
:1002C000000088EC90E0FC018081882F90E0807233
:1002D0009927892BB1F38EEC90E02981FC012083D2
:1002E00000000F900F90DF91CF910895CF93DF938F
:1002F0001F92CDB7DEB789838981813061F000001C
:1003000080EC90E0FC0180818823D4F786EC90E0BB
:10031000FC0180810BC0000088EC90E0FC01808132
:100320008823D4F78EEC90E0FC0180810F90DF9160
:10033000CF910895CF93DF9300D000D0CDB7DEB733
:1003400069837A838B839C8389819A81AB81BC8109
:1003500080930E0190930F01A0931001B0931101AF
:1003600080910E0190910F01A0911001B0911101A7
:100370008093190190931A01A0931B01B0931C0163
:1003800000000F900F900F900F90DF91CF91089584
:10039000CF93DF93CDB7DEB781E890E02BE0FC018F
:1003A000208388E890E02DE730E0FC013183208352
:1003B0008FE690E022E0FC01208384E890E0FC01DD
:1003C0001182108280910E0190910F01A091100175
:1003D000B09111018093190190931A01A0931B0110
:1003E000B0931C018FE590E02FE530E0F90120810A
:1003F0002068FC0120830000DF91CF910895CF9306
:10040000DF93CDB7DEB781E890E0FC0110820000F9
:10041000DF91CF9108950F931F93CF93DF931F9296
:10042000CDB7DEB71982A6C08981282F30E0C90177
:10043000880F991F820F931F880F991F880F991F8C
:10044000895D9E4FFC0120813181428153818981E8
:10045000682F70E0CB01880F991F860F971F880FB8
:10046000991F880F991F8D5D9E4FFC01808191819E
:10047000A281B381281739074A075B0708F449C0EE
:100480008981082F10E08981282F30E0C901880F69
:10049000991F820F931F880F991F880F991F855DE1
:1004A0009E4FFC01408151818981282F30E0C90194
:1004B000880F991F820F931F880F991F880F991F0C
:1004C0008F5D9E4FFC0180819181FA0109959C010D
:1004D000C801880F991F800F911F880F991F880FDF
:1004E000991F8F5D9E4FFC01318320838981282FC6
:1004F00030E0C901880F991F820F931F880F991F41
:10050000880F991F895D9E4FFC0110821182128213
:1005100013828981682F70E08981282F30E0C9011A
:10052000880F991F820F931F880F991F880F991F9B
:10053000895D9E4FFC0180819181A281B3812AE077
:1005400030E040E050E0280F391F4A1F5B1FCB010D
:10055000880F991F860F971F880F991F880F991F63
:10056000895D9E4FFC0120833183428353838981BF
:100570008F5F89838981282F30E082E090E02817FF
:10058000390708F451CF00000F90DF91CF911F91F0
:100590000F9108951F920F9200905F000F92112407
:1005A00000905B000F922F933F934F935F936F9355
:1005B0007F938F939F93AF93BF93EF93FF93CF93CB
:1005C000DF93CDB7DEB78091190190911A01A09108
:1005D0001B01B0911C010197A109B1098093190178
:1005E00090931A01A0931B01B0931C0180911901F3
:1005F00090911A01A0911B01B0911C01892B8A2BAB
:100600008B2B91F40E940B0280910E0190910F01AF
:10061000A0911001B09111018093190190931A01DA
:10062000A0931B01B0931C010000DF91CF91FF91BB
:10063000EF91BF91AF919F918F917F916F915F915A
:100640004F913F912F910F9000925B000F9000927D
:100650005F000F901F901895CF93DF9300D0CDB718
:10066000DEB79A83898389819A81009719F001976F
:1006700099F033C083E290E0FC018081882F90E004
:1006800081709927892B29F081E090E09A838983F2
:1006900024C01A82198221C083E290E0FC0180818B
:1006A000882F90E081709927892B51F081E090E0AC
:1006B0009A83898388E290E021E0FC0120830CC0CA
:1006C00083E290E0FC018081882F90E0817099277F
:1006D000892B11F41A821982000089819A8100976E
:1006E00019F0019731F01EC088E290E0FC01108201
:1006F00019C081E00E94D500882399F090911E01D5
:1007000081E0992309F080E080931E0182E290E06D
:1007100020911E01FC01208380911E0161E00E9456
:100720004501000089819A810F900F90DF91CF9150
:100730000895CF93DF9300D0CDB7DEB79A83898336
:1007400089819A81009719F0019799F02EC083E270
:1007500090E0FC018081882F90E081709927892B9F
:1007600029F481E090E09A8389831FC01A8219825C
:100770001CC083E290E0FC018081882F90E08170B2
:100780009927892B29F481E090E09A8389830CC012
:1007900083E290E0FC018081882F90E081709927AE
:1007A000892B11F01A821982000089819A810097A1
:1007B00019F0019739F017C088E290E021E0FC01C0
:1007C000208311C080E00E940501882359F080E059
:1007D0000E9476018093200182E290E02091200126
:1007E000FC012083000089819A810F900F90DF9196
:1007F000CF910895CF93DF931F92CDB7DEB780E0FE
:100800000E94900080E00E941D0181E00E94900003
:1008100081E00E941D0181E290E02FEFFC01208326
:1008200082E290E0FC01108284E290E0FC01108200
:1008300085E290E02FEFFC01208387E290E02FEF2C
:10084000FC01208388E290E0FC01108219828981FA
:10085000282F30E0C901880F991F820F931F880F3E
:10086000991F880F991F8F5D9E4FFC011182108286
:100870008981282F30E0C901880F991F820F931FAB
:10088000880F991F880F991F9C012D5D3E4F88EEA0
:1008900093E0A0E0B0E0F90180839183A283B38369
:1008A0008981282F30E0C901880F991F820F931F7B
:1008B000880F991F880F991F895D9E4FFC01108238
:1008C0001182128213828981282F30E0C901880F9A
:1008D000991F820F931F880F991F880F991F855D9D
:1008E0009E4F2CE233E0FC013183208389818F5FAE
:1008F00089838981282F30E0C901880F991F820FD1
:10090000931F880F991F880F991F8F5D9E4FFC01C1
:10091000118210828981282F30E0C901880F991F28
:10092000820F931F880F991F880F991F9C012D5DBF
:100930003E4F84E190E0A0E0B0E0F9018083918334
:10094000A283B3838981282F30E0C901880F991FC2
:10095000820F931F880F991F880F991F895D9E4FE3
:10096000FC0110821182128213828981282F30E0CB
:10097000C901880F991F820F931F880F991F880F35
:10098000991F855D9E4F29E933E0FC013183208367
:100990006AE070E080E090E00E949A010E94C80145
:0609A000FFCFF894FFCF29
:1009A60000000002000000006700000000000100D7
:0809B600000002000A0000002D
:00000001FF
