:100000000C9446000C9465000C9465000C946500FB
:100010000C9465000C9465000C9465000C946500CC
:100020000C9465000C9465000C9465000C946500BC
:100030000C9465000C94CA020C9465000C94650045
:100040000C9465000C9465000C9465000C9465009C
:100050000C9465000C9465000C9465000C9465008C
:100060000C9465000C9465000C9465000C9465007C
:100070000C9465000C9465000C9465000C9465006C
:100080000C9465000C9465000C94650011241FBE4F
:10009000CFEFD0E4DEBFCDBF11E0A0E0B1E0EEE9EC
:1000A000F9E000E00BBF02C007900D92A831B10744
:1000B000D9F721E0A8E1B1E001C01D92AA33B2074F
:1000C000E1F70E94FF030C94CD040C940000CF9341
:1000D000DF9300D01F92CDB7DEB789837B836A831D
:1000E00089818A3031F48A819B81BC018DE00E9434
:1000F000670080EC90E0FC018081882F90E08072A6
:100100009927892BB1F386EC90E02981FC012083AB
:1001100080E090E00F900F900F90DF91CF910895C5
:10012000CF93DF931F92CDB7DEB78983898181306A
:10013000E1F081EC90E021EC30E0F90120812861D0
:10014000FC01208382EC90E022EC30E0F901208178
:100150002660FC01208384EC90E023E3FC012083F3
:1001600085EC90E0FC0110821BC089EC90E029EC4A
:1001700030E0F90120812861FC0120838AEC90E0C5
:100180002AEC30E0F90120812660FC0120838CEC10
:1001900090E023E3FC0120838DEC90E0FC011082D1
:1001A00000000F90DF91CF910895CF93DF931F92BE
:1001B000CDB7DEB789838981813031F080EC90E062
:1001C000FC018081807205C088EC90E0FC01808198
:1001D00080720F90DF91CF910895CF93DF931F929C
:1001E000CDB7DEB789838981813031F080EC90E032
:1001F000FC018081807405C088EC90E0FC01808166
:1002000080740F90DF91CF910895CF93DF931F9269
:10021000CDB7DEB789838981813031F080EC90E001
:10022000FC018081807805C088EC90E0FC01808131
:1002300080780F90DF91CF910895CF93DF931F9235
:10024000CDB7DEB7898389818130A1F006C086EC05
:1002500090E0FC01808180931E0180EC90E0FC0125
:1002600080818823A4F30CC08EEC90E0FC01808197
:1002700080931E0188EC90E0FC0180818823A4F328
:1002800000000F90DF91CF910895CF93DF9300D0BE
:10029000CDB7DEB789836A838A81813089F0000017
:1002A00080EC90E0FC018081882F90E0807299279B
:1002B000892BB1F386EC90E02981FC01208310C0EA
:1002C000000088EC90E0FC018081882F90E0807233
:1002D0009927892BB1F38EEC90E02981FC012083D2
:1002E00000000F900F90DF91CF910895CF93DF938F
:1002F0001F92CDB7DEB789838981813061F000001C
:1003000080EC90E0FC0180818823D4F786EC90E0BB
:10031000FC0180810BC0000088EC90E0FC01808132
:100320008823D4F78EEC90E0FC0180810F90DF9160
:10033000CF910895CF93DF9300D000D0CDB7DEB733
:1003400069837A838B839C8389819A81AB81BC8109
:1003500080930E0190930F01A0931001B0931101AF
:1003600080910E0190910F01A0911001B0911101A7
:100370008093190190931A01A0931B01B0931C0163
:1003800000000F900F900F900F90DF91CF91089584
:10039000CF93DF93CDB7DEB781E890E02BE0FC018F
:1003A000208388E890E02DE730E0FC013183208352
:1003B0008FE690E022E0FC01208384E890E0FC01DD
:1003C0001182108280910E0190910F01A091100175
:1003D000B09111018093190190931A01A0931B0110
:1003E000B0931C018FE590E02FE530E0F90120810A
:1003F0002068FC0120830000DF91CF910895CF9306
:10040000DF93CDB7DEB781E890E0FC0110820000F9
:10041000DF91CF9108950F931F93CF93DF931F9296
:10042000CDB7DEB71982A6C08981282F30E0C90177
:10043000880F991F820F931F880F991F880F991F8C
:10044000885D9E4FFC0120813181428153818981E9
:10045000682F70E0CB01880F991F860F971F880FB8
:10046000991F880F991F8C5D9E4FFC01808191819F
:10047000A281B381281739074A075B0708F449C0EE
:100480008981082F10E08981282F30E0C901880F69
:10049000991F820F931F880F991F880F991F845DE2
:1004A0009E4FFC01408151818981282F30E0C90194
:1004B000880F991F820F931F880F991F880F991F0C
:1004C0008E5D9E4FFC0180819181FA0109959C010E
:1004D000C801880F991F800F911F880F991F880FDF
:1004E000991F8E5D9E4FFC01318320838981282FC7
:1004F00030E0C901880F991F820F931F880F991F41
:10050000880F991F885D9E4FFC0110821182128214
:1005100013828981682F70E08981282F30E0C9011A
:10052000880F991F820F931F880F991F880F991F9B
:10053000885D9E4FFC0180819181A281B3812AE078
:1005400030E040E050E0280F391F4A1F5B1FCB010D
:10055000880F991F860F971F880F991F880F991F63
:10056000885D9E4FFC0120833183428353838981C0
:100570008F5F89838981282F30E082E090E02817FF
:10058000390708F451CF00000F90DF91CF911F91F0
:100590000F9108951F920F9200905F000F92112407
:1005A00000905B000F922F933F934F935F936F9355
:1005B0007F938F939F93AF93BF93EF93FF93CF93CB
:1005C000DF93CDB7DEB78091190190911A01A09108
:1005D0001B01B0911C010197A109B1098093190178
:1005E00090931A01A0931B01B0931C0180911901F3
:1005F00090911A01A0911B01B0911C01892B8A2BAB
:100600008B2B91F40E940B0280910E0190910F01AF
:10061000A0911001B09111018093190190931A01DA
:10062000A0931B01B0931C010000DF91CF91FF91BB
:10063000EF91BF91AF919F918F917F916F915F915A
:100640004F913F912F910F9000925B000F9000927D
:100650005F000F901F901895CF93DF9300D0CDB718
:10066000DEB79A83898389819A81009719F001976F
:1006700069F01CC080911D01813029F481E090E077
:100680009A83898313C01A82198210C080911D0138
:10069000813029F481E090E09A83898306C08091BB
:1006A0001D01882311F41A821982000089819A8120
:1006B000009719F0019731F02AC088E290E0FC0120
:1006C000108225C080E00E940501882339F0109235
:1006D0001D0188E290E0FC01108218C081E00E94B8
:1006E000D500882399F090911F0181E0992309F0AA
:1006F00080E080931F0182E290E020911F01FC01C5
:10070000208380911F0161E00E94450100008981E2
:100710009A810F900F90DF91CF910895CF93DF933F
:1007200000D0CDB7DEB79A83898389819A810097FB
:1007300019F0019789F023C080911D01882329F4C5
:1007400081E090E09A83898317C080911D018130F8
:1007500099F41A82198210C080911D01882329F40E
:1007600081E090E09A83898309C080911D018130E6
:1007700029F41A82198202C0000001C00000898198
:100780009A81009719F0019739F032C088E290E021
:1007900021E0FC0120832CC080E00E940501882319
:1007A00071F080E00E9476018093200182E290E067
:1007B00020912001FC0120831092210118C080E0CB
:1007C0000E940501882399F4809121018F5F809315
:1007D000210180912101843650F081E080931D0138
:1007E00088E290E021E0FC012083109221010000CA
:1007F00089819A810F900F90DF91CF910895CF93C7
:10080000DF931F92CDB7DEB780E00E94900080E0BA
:100810000E941D0181E00E94900081E00E941D0164
:1008200081E290E02FEFFC01208382E290E0FC0166
:10083000108287E290E02FEFFC01208388E290E0B5
:10084000FC01108219828981282F30E0C901880FAC
:10085000991F820F931F880F991F880F991F8E5D14
:100860009E4FFC01118210828981282F30E0C9013E
:10087000880F991F820F931F880F991F880F991F48
:100880009C012C5D3E4F8EE190E0A0E0B0E0F901CC
:1008900080839183A283B3838981282F30E0C901AB
:1008A000880F991F820F931F880F991F880F991F18
:1008B000885D9E4FFC011082118212821382898111
:1008C000282F30E0C901880F991F820F931F880FCE
:1008D000991F880F991F845D9E4F2EE833E0FC011D
:1008E0003183208389818F5F89838981282F30E03C
:1008F000C901880F991F820F931F880F991F880FB6
:10090000991F8E5D9E4FFC01118210828981282FD4
:1009100030E0C901880F991F820F931F880F991F1C
:10092000880F991F9C012C5D3E4F88EE93E0A0E05C
:10093000B0E0F90180839183A283B3838981282F5A
:1009400030E0C901880F991F820F931F880F991FEC
:10095000880F991F885D9E4FFC01108211821282C0
:1009600013828981282F30E0C901880F991F820FD7
:10097000931F880F991F880F991F845D9E4F2CE24B
:1009800033E0FC01318320836AE070E080E090E096
:0E0990000E949A010E94C801FFCFF894FFCF89
:10099E0000000002000000006700000000000100DF
:0809AE00000002000A00000035
:00000001FF
